:020000040800F2
:10000000500400203D190008C5180008C718000852
:10001000C9180008CB180008CD180008000000001F
:10002000000000000000000000000000CF180008E1
:10003000D118000800000000D3180008D5180008E7
:100040006119000865190008691900086D19000890
:100050007119000875190008791900087D19000840
:100060008119000885190008891900088D190008F0
:100070009119000895190008991900089D190008A0
:10008000A1190008A5190008A9190008000000001E
:10009000000000000000000000000000AD19000892
:1000A000B1190008B5190008B9190008BD190008F0
:1000B000C1190008C5190008C9190008CD190008A0
:1000C000D1190008D5190008D9190008DD19000850
:1000D000E1190008D9180008E5190008000000001F
:1000E000E9190008ED190008F119000800000000E6
:1000F000000000000000000000000000F5190008EA
:1001000000000000F9190008FD190008011A000894
:1001100000000000000000000000000000000000DF
:10012000051A0008091A00080D1A0008111A00081B
:10013000151A000800000000000000000000000088
:10014000000000000000000000000000191A000874
:100150001D1A0008211A0008251A0008291A00088B
:100160002D1A0008311A00080000000000000000ED
:10017000000000000000000000000000000000007F
:1001800000000000351A0008000000000000000018
:10019000391A000870B5040001D1012070BD216832
:1001A000A069DFF8A453DFF8A423DFF8A433DFF855
:1001B000A463B8B1B1421CBF9942914203D040F24E
:1001C0004B1100F04FF8A069002818BFB0F5807FF0
:1001D00011D0B0F5007F18BFB0F5407F0BD04FF4C1
:1001E000A67106E0B1421CBF9942914203D04FF480
:1001F000A87100F037F8A068002818BFB0F5805F3C
:1002000003D04FF4A97100F02DF8E069002818BF61
:10021000B0F5004F03D040F2531100F023F804F181
:100220003805687808B900F00EF800F011F800F011
:100230001CF8C16841F40051C160002068602021B1
:100240006970A97070BD00212970204600F0D0BAF5
:10025000242068702068C16821F40051C1602046E4
:1002600000F009BA284600F0DDBB2068016921F4DE
:10027000904101612068416921F02A0141612068B3
:1002800070472DE9F843054605F138070C467878A4
:100290002028164698463DD1002C14BF002E012080
:1002A00039D03878012835D00121397000207860A4
:1002B00021227A7000F0B8FB8146AE84EE840020E3
:1002C000387003E02A6814F8011B5160E88C20B3F1
:1002D000E88C411EE9844B46A868CDF80080B0F553
:1002E000805F0DD100F07BF870B920882968C0F3D9
:1002F000080048602869002814BF641CA41CE5E7B6
:1003000000F06DF80028DDD0032004E02020787094
:10031000002000E00220BDE8F283CDF800804B46CB
:100320000022402100F05DF80028EFD0ECE72DE935
:10033000F843054605F138070C46B87820281646DC
:10034000994645D1002C14BF002E012041D03878A9
:1003500001283DD001213970002078602222BA7036
:1003600000F062FB8046AE85EE8500203870E88D97
:1003700088B3E88D411EE9854346A868CDF8009012
:10038000B0F5805F12D10022202100F02AF890B948
:10039000286929680028486819BF00F0FF0024F880
:1003A000010BC0F3080024F8020BE0E70022202133
:1003B00000F017F808B103200BE02869296800282D
:1003C000486802D104F8010BD1E700F07F00F9E79B
:1003D0000220BDE8F2832020B8700020F9E7002257
:1003E0008021284600F0B8B8416921F04001416100
:1003F000606B704738B5044625682968EA686B6900
:1004000011F00F0007D188065FD593065DD5204611
:10041000BDE83240E6E0D80702D412F4907F54D011
:10042000C80705D5D50503D5E06B40F00100E063B2
:10043000480705D5DD0703D5E06B40F00200E06317
:10044000880705D5DD0703D5E06B40F00400E063C5
:10045000080707D5950601D4D80703D5E36B43F009
:100460000803E363E06B00286CD0880604D591068E
:1004700044BF204600F0B6F820684069E16B0A07E7
:1004800001D440061BD5204600F098F82068416949
:100490004A060FD5FFF7A8FF60B10FF23D110165C5
:1004A000606B00F0C7FA00284CD0606B016DBDE8AE
:1004B000344008472046BDE8324000F0CDBA20461F
:1004C00000F0CAFA0020E06331BD08062AD5130601
:1004D00028D594F83900212834D1A068B0F5805F80
:1004E000206A0BD10188C1F30801696020690028E6
:1004F000206A0CBF811C411C216203E0411C216267
:1005000000786860E08C401EE08480B2D0B920683A
:10051000C16821F08001C1602068C16841F04001DC
:10052000C16031BD48060DD551060BD5E86820F0F5
:100530004000E860202184F839102046BDE83240B0
:1005400000F08BBA31BD0000BC1700080014014058
:1005500000440040001001402DE9F041069C054692
:100560000E4690461F46286801683140B1420CBFD4
:1005700001200020404517D114F1010FF3D024B120
:1005800000F052FAC01B8442EDD22868C16821F401
:10059000D07100F00CF805F1380020214170817015
:1005A00000210170032000E00020BDE8F081C1605F
:1005B0002868416949084900416170470168CA6873
:1005C00022F49072CA6001684A69520852004A6176
:1005D000202180F83A107047806B0021C185C184CA
:1005E00000F03ABA80B590F83A10222941D18168DA
:1005F000B1F5805F12D101690368826A00295968E8
:1006000005D1C1F308011180826A911C04E001F058
:10061000FF011180826A511C81620FE0016900298B
:10062000816A04D14A1C826203685A6805E04A1C48
:10063000826203685A6802F07F020A70C18D491E07
:10064000C18589B299B90168CA6822F02002CA60DE
:100650000168CA6822F48072CA6001684A69520857
:1006600052004A61202180F83A1000F0F7F900208A
:1006700002BD022002BDD0B50646484B7268464C0A
:100680009A4203D340F6FB3100F094F8F06800285A
:1006900018BFB0F5005F03D040F6FC3100F08AF8D7
:1006A000306900281CBFB0F5806FB0F5C06F03D073
:1006B00040F6FD3100F07EF870694FF6F3710842A4
:1006C00000D118B940F6FE3100F074F832681169B3
:1006D000F06821F44051014311616427D368304828
:1006E000B168034030690B4371690343F0690B4300
:1006F0000343D36019245169B06921F44071014367
:100700005161F36923482749B3F5004F1FD18A424D
:1007100018BF824202D100F09AFA01E000F08FFA8D
:100720000246A4FB02017268D30F520000F0DAFA0D
:1007300000F03AF8FF0032376420B7FBF0F04200D7
:1007400002F4F87202EB011200F007001DE08A4289
:1007500018BF824202D100F07AFA01E000F06FFA8D
:100760000246A4FB02017268930F920000F0BAFAED
:1007700000F01AF83F0132376420B7FBF0F000F0C8
:10078000F00202EB011200F00F003168801888605F
:10079000D0BD000000140140BC170008A137A00024
:1007A000F369FFFF001001406421B0FBF1F107FB8A
:1007B00011077047204600F035B9000081B00020D5
:1007C000009000222848416841F48041416041681E
:1007D00001F48041009100990092036843F0805336
:1007E0000360006800F080500090009801B07047EE
:1007F00038B586B0044601A8142100F0F7FA246841
:100800001A4DAC422DD100200090002218484169B9
:1008100041F010014161416901F01001009100991E
:1008200000924FF4C061036843F0010303600222A9
:10083000006800F00100009000980E4801910292BB
:1008400000210391032207210591049201A900F0E0
:10085000D1FA00220021252000F068FC252000F0BC
:1008600096FC07B030BD0000403802400010014047
:10087000303802400000024010B586B000F0C0FCE5
:1008800000F077F801A8142100F0B0FA00200090E1
:100890005C4C5D48016841F004010160026802F0AF
:1008A00004020092002200990092036843F0800342
:1008B0000360016801F080010091009900920368D3
:1008C00043F001030360016801F001010091009908
:1008D00000920122036843F0020303604FF40051C9
:1008E000006800F0020000900098204600F0B8FB7D
:1008F0004FF40051019101220021039104910292D1
:1009000001A9204600F076FA49F6FF1000F02AF817
:100910003E483F4C00F06EFA4FF2FF7000F022F8B4
:100920003C4800F067FA3C4820604FF4E1310C206D
:10093000002260616160A260E2602261A261E26106
:100940002046FFF727FC6423012269462046FFF773
:10095000EEFC0028F7D16423012269462046FFF708
:1009600090FCF0E70321019002910022039201A97B
:10097000704780B592B006A8302100F037FA01A880
:10098000142100F033FA002000902448016841F05F
:10099000805101600021006800F0805000900098B4
:1009A0001F4800910221026822F4404242F40042B2
:1009B00002600122006800F4404000900098069117
:1009C000099210210A91022200210C920D91082215
:1009D00054210E920F91022204211092119106A827
:1009E00000F028FC022102910F204FF48051019069
:1009F0000022049103920592022101A800F030F830
:100A000013B000BD00080240303802400000024030
:100A10001000002000040240001001404038024055
:100A2000007000407047000001484068704700BFF8
:100A30000000002090F83510022903D08022426582
:100A400001207047052180F83510006802685208BF
:100A500052000260002070477047704770470000E6
:100A60002DE9F84304000D4670D02068DFF8F481CA
:100A700008B1102803D340F2512100F0DDF8002D19
:100A800018BF012D0FD0022D18BF032D0BD0042D40
:100A900018BF052D07D0062D18BF072D03D040F233
:100AA000522100F0C9F8704E306800F00F00A842E3
:100AB00002D200F0BBF849D120686C4F810728D5DD
:100AC000400703D5B96841F4E051B96020780107C7
:100AD00003D5B86840F46040B860A068002818BF2B
:100AE000802810D0902818BFA0280CD0B02818BF9C
:100AF000C02808D0D0281CBFE028F02803D040F23E
:100B0000752100F099F8B968A06821F0F00101435F
:100B1000B9602178C80740F17F806068B8B10128CA
:100B20000AD0022818BF03280DD04FF41F7100F01F
:100B300083F86068012802D13868810305E0022843
:100B400018BF032803D13868810103D46CE03868EA
:100B5000810769D5BA686068920840EA8202BA6083
:100B6000FFF762FF8146B868616800F00C00B0EBE7
:100B7000810F51D0FFF758FFA0EB090041F28931F6
:100B80008842F0D3032045E02078410717D5E0687C
:100B9000002818BFB0F5805F0BD0B0F5A05F1CBF78
:100BA000B0F5C05FB0F5E05F03D040F2BA2100F0CD
:100BB00043F8B968E06821F4E0510143B960217855
:100BC000080718D52069002818BFB0F5805F0BD042
:100BD000B0F5A05F1CBFB0F5C05FB0F5E05F03D01B
:100BE00040F2C12100F028F8B868216920F4604083
:100BF00040EAC100B86000F045F8BA681C491D4BD6
:100C0000C2F30312895CC84018601B48006800F0FA
:100C10002BFD0020BDE8F283306800F00F00854214
:100C2000B2D200F003F8AFD00120F3E7357031689D
:100C300001F00F01A94270474046FFF7F3BE0D488F
:100C40000E4A006813680E49C3F3822206E0094881
:100C50000A4A006813680A49C3F34232895CC840F3
:100C60007047000074170008003C02400038024042
:100C7000581800080C000020080000200838024026
:100C80005819000830B5144C606800F00C000428B6
:100C900002D0082802D01DE0104830BD226820682C
:100CA0000023410202F03F0204D525680B49C5F339
:100CB000881003E020680A49C0F38810A1FB0001F6
:100CC00000F010F82168C1F30141491C4900B0FB54
:100CD000F1F030BD024830BD0438024040787D015B
:100CE0000024F400D3BBD9B1B2F5803F5BD2022A15
:100CF0001ED98C46B1FBF2F102FB11C31B0443EA7F
:100D00001043B3FBF2FC02FB1C3380B240EA034306
:100D1000B3FBF2F002FB103240EA0C4000237047B4
:100D2000022A05D98446B0FBF2F002FB10C27047DC
:100D30004AB105D100F0010249085FEA300070476E
:100D400000220023704700F0AFBC0B00020000211E
:100D500000207047F7D3002200237047904271EBC8
:100D6000030CF2D370B5B1FA81F4B3FA83F52C1BFE
:100D7000A340C4F1200532FA05F63343A2405FF0E8
:100D80000046E64002E05B085FEA3202841A71EB3B
:100D9000030524BF204629467641F4D302000B0008
:100DA0003000002170BD70B5B1FA81F4B2FA82F55D
:100DB000C4F120046419B4F12006DAD3B2405FF024
:100DC0000044F440002502E052085FEA3303C61AEB
:100DD00071EB020E24BF3046714664416D41F3D37E
:100DE00002000B002000290070BD0000002200F06E
:100DF0005DBC00002DE9F84F0546DFF898020E466D
:100E000085421CBFDFF890128D42DFF890B212D0FD
:100E1000DFF88C0285421CBFDFF888128D420AD0B1
:100E2000DFF8840285421CBFDFF88022954202D0A1
:100E3000B32100F012F93068010402D0000C000464
:100E400002D0B42100F009F97068002818BF012809
:100E500022D0112818BF02281ED012281CBFDFF88C
:100E60005012884218D0DFF84C2290421CBFDFF8A5
:100E70004812884210D0DFF8442290421CBFDFF8AD
:100E80004012884208D0DFF83C22904218BF032865
:100E900002D0B52100F0E1F8B06800281CBF01289D
:100EA000022802D0B62100F0D8F8002701243068CB
:100EB000BC4004EA0008A04540F0C3804FEA47095F
:100EC000032000FA09F06FEA000A7068012818BFD1
:100ED000022803D0112818BF122819D1F068002861
:100EE00018BF012806D0022818BF032802D0C82145
:100EF00000F0B3F8A868F16800F0A9F8A860686885
:100F000020EA04047068C0F30010B84004436C6029
:100F1000BC00E868B16800F09AF8E86070680228E0
:100F200018BF122829D13069002818BF0C2816D004
:100F3000012818BF022812D0042818BF05280ED097
:100F4000062818BF07280AD0082818BF0A2806D084
:100F5000092818BF0F2802D0E02100F07EF8F80819
:100F600005EB800004F01C02016A0F2393409943B3
:100F7000336903FA02F21143016228680AEA0001A8
:100F8000307900F0030000FA09F008432860716826
:100F9000C80056D500214C48009104F00C040268AA
:100FA0004A4942F480420260026802F480420092A0
:100FB0000F220098B80851F82030A24023EA02021C
:100FC000344B9D4208BF002313D0334B9D4208BFD2
:100FD00001230ED0324B9D4208BF022309D0314B72
:100FE0009D4208BF032304D02F4B9D420CBF042316
:100FF000072303FA04F4144341F820406FEA080180
:101000003348026873680A40DB0348BF48EA0202BB
:101010000260426873680A409B0348BF48EA0202C4
:101020004260826873680A40DB0248BF48EA0202F5
:101030008260C2680A4071688B0248BF48EA0202B7
:10104000C2607F1C102FFFF431AFBDE8F18F0AEAB8
:10105000000001FA09F1084370475846FFF7E2BC67
:10106000F8B50D4616462A0004460C4F04D140F24E
:101070009F113846FFF7D6FC300007D0012E06D06E
:101080004FF4D0713846FFF7CDFC00E02D04A56188
:10109000F1BD000000000240000402402C170008CF
:1010A00000080240000C024000100240001C0240F8
:1010B000000011100000211000003110000012107B
:1010C000000022100000321044380240083801406D
:1010D000003C01400901020003D4DFF808018154FB
:1010E0007047DFF8043102F00F021A4402F8041CC2
:1010F000704710B50446072C18BF062C07D0052CE6
:101100001CBF042C032C02D0922100F068F8DFF8F9
:10111000DC2010684FF6FF012402084004F4E0646C
:101120000443DFF8CC000443146010BDF8B5154645
:10113000102D04460E46DFF8BC7003D3AA213846B2
:10114000FFF770FC102E03D3AB213846FFF76AFC83
:10115000DFF898000168C1F30220C0F107010529FA
:1011600028BF0421021D072A34BF0020C01E01220F
:1011700002FA01F1491E0E40864002FA00F0401EBC
:10118000054045EA06012046BDE8F440A2E701001B
:1011900001D5BE2105E0012200F01F01DFF8583023
:1011A00018E0DFF85000FFF73DBC10B5401EB0F16D
:1011B000807F01D3012010BDDFF8404060600F2127
:1011C0004FF0FF30FFF786FF0021A160072020606D
:1011D000002010BD8A40400943F820207047054890
:1011E000FFF720BC00E400E018ED00E00CED00E0AB
:1011F0000000FA05E016000800E100E010E000E061
:1012000080B50B48016841F400710160026842F446
:1012100080620260016841F4807101600320FFF781
:1012200068FF002000F020FAFFF7C8FA002002BD96
:10123000003C02402DE9FC4704002BD02268DFF877
:101240001484102A03D3E8214046FFF7EBFB2078F3
:10125000DFF80474C1071FD5606800281CBFB0F513
:10126000803FB0F5A02F03D0ED214046FFF7DAFB19
:10127000B86800F00C00042807D0B86800F00C0033
:1012800008285CD17868410259D53868810303D5B4
:101290006068002800F020812078DFF8C0638107B3
:1012A0002BD5E068002818BF012804D040F21F1198
:1012B0004046FFF7B7FB2069202804D34FF4907114
:1012C0004046FFF7AFFBB86810F00C0F07D0B868C6
:1012D00000F00C00082868D17868410265D43868AD
:1012E000810703D5E068012840F0F680396820695D
:1012F00021F0F80141EAC00139602178080779D569
:101300006069DFF85C5300286DD0012807D04FF4E6
:10131000B0714046FFF786FB6069002863D0012169
:101320002960FFF781FB0546786F810700F1D680C1
:10133000FFF77AFB401B0228F6D9032087E160689B
:10134000B0F5803F04D1386840F48030386011E057
:10135000B0F5A02F386806D140F480203860396895
:1013600041F4803105E020F480303860396821F4A0
:1013700080213960606858B1FFF756FB0546386830
:10138000810389D4FFF750FB401B6528F7D3D4E7CE
:10139000FFF74AFB0546386881037FF57DAFFFF70D
:1013A00043FB401B6528F6D3C7E7E06870B1012115
:1013B0003160FFF739FB05463868810700F1C580C9
:1013C000FFF732FB401B0228F6D9B6E73060FFF783
:1013D0002BFB0546396888078FD5FFF725FB401B97
:1013E0000228F7D9A9E700202860FFF71DFB054672
:1013F000786F810772D5FFF717FB401B0228F7D9DA
:101400009BE70528386F06D140F004003867386F35
:1014100040F0010005E0400840003867386F20F0D8
:101420000400386741F28939A06868B1FFF7FCFA17
:101430008246386F810700F19580FFF7F5FAA0EB3F
:101440000A004845F5D378E7FFF7EEFA8246386F91
:10145000810740F18780FFF7E7FAA0EB0A004845D3
:10146000F5D36AE7FFF7E0FA401B022840F2D2808A
:1014700063E7FFF7D9FA001B022840F2E3805CE73C
:1014800000203066FFF7D0FA04463868810140F149
:10149000DD80FFF7C9FA001B0228F6D94DE70128C5
:1014A0001AD07868E26900F48001914202BF00F02E
:1014B0003F01226A91420FD147F6C071626A014032
:1014C000914202BF00F44031A26A914202BF00F093
:1014D0007060E16A88424CD00120B8E02078410772
:1014E00045D5A068002500281CBF0128052804D088
:1014F0004FF4C6714046FFF795FA386CC1000AD424
:1015000000950125396C41F080513964386C00F048
:10151000805000900098DFF84C91D9F80000C10588
:101520001BD4D9F8000040F48070C9F80000FFF720
:101530007BFA8246D9F80000C1050ED4FFF774FA91
:10154000A0EB0A000228F5D9F7E63868216920F0F7
:10155000F80040EAC1003860CFE6A06801287FF4B7
:1015600050AF54E71DB1386C20F080503864A0694A
:1015700000286BD0012818BF022807D040F2CF11F5
:101580004046FFF74FFAA06900285FD0A069B9680C
:1015900001F00C0108293FF482AF02287FF470AFFC
:1015A000E069002818BFB0F5800F04D04FF4EC714B
:1015B0004046FFF737FA206A402804D340F2D91199
:1015C0004046FFF72FFA606A323840F27F118842B6
:1015D00004D34FF4ED714046FFF724FAA06A0228C5
:1015E00018BF042808D0062818BF082804D040F2E5
:1015F000DB114046FFF716FAE06A801E0E2804D37E
:101600004FF4EE714046FFF70DFA00203066FFF709
:101610000BFA0546386881013FF524AFE269206A7C
:10162000616A0243A06A400842EA8112401E42EA0F
:101630000042E06A42EA00627A6001213166FFF707
:10164000F3F90446386881017FF513AF0020BDE847
:10165000F68700BF741700080038024000004742B8
:10166000800E47420070004038B50D4D0D4B2A7872
:1016700004464FF47A711868B1FBF2F2B0FBF2F055
:10168000FFF793FD50B9102C08D2002221464FF0ED
:10169000FF30FFF74BFDAC60002032BD012032BDB2
:1016A000000000200C0000207047000000B500BFC3
:1016B000130096469446103928BFA0E80C50FAD87B
:1016C0005FEA417C28BF0CC048BF40F8042BC90723
:1016D00028BF20F8022B48BF00F8012B00BD0000F6
:1016E000443A5C746573745C756172745F7465739D
:1016F000745C447269766572735C53544D33324640
:101700003478785F48414C5F4472697665725C5307
:1017100072635C73746D3332663478785F68616CC1
:101720005F636F727465782E63000000443A5C74E6
:101730006573745C756172745F746573745C447214
:1017400069766572735C53544D3332463478785FF2
:1017500048414C5F4472697665725C5372635C7396
:10176000746D3332663478785F68616C5F67706976
:101770006F2E6300443A5C746573745C75617274B7
:101780005F746573745C447269766572735C5354FC
:101790004D3332463478785F48414C5F4472697605
:1017A00065725C5372635C73746D3332663478783F
:1017B0005F68616C5F7263632E630000443A5C741F
:1017C0006573745C756172745F746573745C447284
:1017D00069766572735C53544D3332463478785F62
:1017E00048414C5F4472697665725C5372635C7306
:1017F000746D3332663478785F68616C5F756172DE
:10180000742E630030B5016884684218416802EBA9
:101810005103C9070BD54C4409E012F9011B12F81A
:10182000015B002904F8015B05D5491CF9D19A42F6
:10183000F3D10C3030BD491EF1D5F8E70448054A14
:10184000016841F4700101604FF000601060704762
:1018500088ED00E008ED00E000000000000000005E
:10186000010203040607080910B507497944183135
:10187000064C7C44163404E00A68081D114488476D
:101880000146A142F8D110BD2C0000003800000034
:101890004EF68851CEF20001086840F470000860EE
:1018A000BFF34F8FBFF36F8F4FF00070E1EE100A60
:1018B0007047000051FFFFFF840100001A00000084
:1018C000000000207047FEE7FEE7FEE7FEE77047F6
:1018D0007047704700F006B80148FEF78BBD000066
:1018E000100000200248416802788A184260704760
:1018F0000000002000F00DF8002801D0FFF7B4FF31
:10190000AFF300800020AFF30080FEF7B5FF00F0DA
:1019100002F80120704700F001B800000746384681
:1019200000F002F8FBE7000080B5AFF30080024A48
:1019300011001820ABBEFBE72600020001488047DB
:10194000014800473D1800084D190008AFF300801A
:10195000FFF79EFFFFF7CEFF000000000102030427
:10196000FFF7FEBFFFF7FEBFFFF7FEBFFFF7FEBFAB
:10197000FFF7FEBFFFF7FEBFFFF7FEBFFFF7FEBF9B
:10198000FFF7FEBFFFF7FEBFFFF7FEBFFFF7FEBF8B
:10199000FFF7FEBFFFF7FEBFFFF7FEBFFFF7FEBF7B
:1019A000FFF7FEBFFFF7FEBFFFF7FEBFFFF7FEBF6B
:1019B000FFF7FEBFFFF7FEBFFFF7FEBFFFF7FEBF5B
:1019C000FFF7FEBFFFF7FEBFFFF7FEBFFFF7FEBF4B
:1019D000FFF7FEBFFFF7FEBFFFF7FEBFFFF7FEBF3B
:1019E000FFF7FEBFFFF7FEBFFFF7FEBFFFF7FEBF2B
:1019F000FFF7FEBFFFF7FEBFFFF7FEBFFFF7FEBF1B
:101A0000FFF7FEBFFFF7FEBFFFF7FEBFFFF7FEBF0A
:101A1000FFF7FEBFFFF7FEBFFFF7FEBFFFF7FEBFFA
:101A2000FFF7FEBFFFF7FEBFFFF7FEBFFFF7FEBFEA
:101A3000FFF7FEBFFFF7FEBFFFF7FEBF0001F90093
:091A40000010FC000124F4BF00B9
:040000050800194D89
:00000001FF
